:10104200007F00BF00DF00EF00F700FB00FD00FEA5
:10105200003F0006005B004F0066006D007D000748
:10106200007F006F0077007C0039005E007900711C
:08107200007600380040000088
:06118E000114000109003C
:0300230002107A4E
:10107A00C0E0C0D075D000C000309823C298740A6E
:10108A002514F8A699E50AB42B04051480037514EF
:10109A0000E514640A7008F514E51324D0F509D0A4
:0610AA0000D0D0D0E032BE
:03000B00020F627F
:100F6200C0E0C0F0C083C082C0D075D000C000C055
:100F720001C002C003C004C005C006C007758C4B87
:100F8200758AFD0508E50864C8700FF50812117F1F
:100F9200EF4E6006120FB7120EDBD007D006D00557
:100FA200D004D003D002D001D000D0D0D082D083E0
:050FB200D0F0D0E03298
:100D7C001210DB1211697F03120C6712000E7E0039
:100D8C00C37480948040F7D3E509940974809480EF
:100D9C0050ECD2A6E50925E02452F582E43410F596
:100DAC0083740193F580C2A6D2A77580FEC2A7E515
:100DBC0009B40A0050C8900DC9F8282873020DE731
:100DCC00020DE9020DEB020DED020DEF020DF10229
:100DDC000DF3020DF5020E09020E2C800C800A8018
:100DEC00088006800480028000E50925E02442F595
:100DFC0082E43410F583740193F59080819010484F
:100E0C00E4740193F5907FF47E0112114B90104A1B
:100E1C00E4740193F5907FF47E0112114B020D8A5C
:100E2C0090104EE4740193F5907FF47E0112114BF7
:100E3C00901050E4740193F5907FF47E0112114BE5
:030E4C00020D8A0A
:1009F900B2C9BCAFB5BDCEC2B6C8CEAAA3BA252E60
:100A09003366A1E60A0041542B5253540D0A0000E3
:100A190000000000000000000000000000000000CD
:100A290000000000000000000000000000000000BD
:100A390000000000000000000000000000000000AD
:100A4900000041542B43574D4F44453D310D0A0099
:100A5900000000000000000000000000000000008D
:100A6900000000000000000000000000000000007D
:100A790000000000000000000000000000004154D8
:100A89002B43574D4F44453D320D0A0000000000ED
:100A9900000000000000000000000000000000004D
:100AA900000000000000000000000000000000003D
:100AB9000000000000000000000041542B43574D86
:100AC9004F44453D330D0A000000000000000000BE
:100AD900000000000000000000000000000000000D
:100AE90000000000000000000000000000000000FD
:100AF90000000000000041542B43574A41505F4415
:100B090045463D2254656E64615F46393043463837
:100B1900222C223171327733653472357432333392
:100B29002C2E220D0A000000000000000000000029
:100B3900000041542B4349504D55583D310D0A0091
:100B4900000000000000000000000000000000009C
:100B5900000000000000000000000000000000008C
:100B690000000000000000000000000000004154E7
:100B79002B4349505345525645523D312C38303854
:100B8900300D0A0000000000000000000000000015
:100B9900000000000000000000000000000000004C
:100BA9000000000000000000000041542B434950A0
:100BB90053544152543D22544350222C223139324C
:100BC9002E3136382E302E313031222C3536373809
:100BD9000D0A0000000000000000000000000000F5
:100BE90000000000000041542B43495053454E4436
:100BF9003D32320D0A000000000000000000000034
:100C090000000000000000000000000000000000DB
:100C190000000000000000000000000000000000CB
:100C2900000041542B434950434C4F53450D0A0092
:100C390000000000000000000000000000000000AB
:100C4900000000000000000000000000000000009B
:0E0C590000000000000000000000000000008D
:041194000215000040
:020C67008F43B9
:100C6900E4F544EF3395E0FEEF64014E7027D29925
:100C79007BFF7A0A794B1205EC3099FDC2997FE81E
:100C89007E0312114BD2997BFF7A0A79FF1205EC88
:100C99003099FD8049AF43EF3395E0FEEF64024E92
:100CA9007048D2997BFF7A0A79871205EC3099FD51
:100CB900C2997FE87E0312114BD2997BFF7A0B7997
:100CC9003B1205EC3099FDC2997FE87E0312114B66
:100CD900D2997BFF7A0B79771205EC3099FDC2998D
:100CE9007FE87E0312114B020D75AF43EF3395E098
:100CF900FEEF64034E7075D2997BFF7A0A79C312AD
:100D090005EC3099FDC2997FE87E0312114BD29907
:100D19007BFF7A0A79FF1205EC3099FDC2997FE8C9
:100D29007E0312114BE4F544AF44EF3395E0FEC363
:100D3900EF9404EE648094805032D2997BFF7A0B51
:100D4900793B1205EC3099FDC2997FE87E031211B7
:100D59004BD2997BFF7A0B79771205EC3099FDC25A
:100D6900997FE87E0312114B054480BC7515007507
:020D7900160161
:010D7B002255
:100EDB008F268E258D248C23D2997BFF7A0C792B30
:100EEB001205EC3099FDC2997F147E0012114BD282
:100EFB00997BFF7A0B79B31205EC3099FDC2997F80
:100F0B00147E0012114BD2997BFF7A0B79EF1205ED
:100F1B00EC3099FDC2997F147E0012114BD2997B54
:100F2B00FF7A0979F985264B85254A85244985233E
:100F3B00481205EC3099FDC2997F327E0012114B9D
:100F4B00D2997BFF7A0C792B1205EC3099FDC29963
:070F5B007F147E0002114B20
:0F117F00E516451560057E007F0122E4FEFF2284
:10116900D2AFD2ACC29FD29ED29CD28E4389207577
:061179008DFD758BFD22C7
:10000E00D2AFD2A9D28C438901758C4B758AFD2251
:10112B00D2A200C2A27F4B120003D2A27F041200F4
:0F113B0003A2A292097F14120003D2A200A209FC
:01114A002282
:0210B0008F436C
:1010B200E4F544C3E544940874809480501AC2A2B3
:1010C20000E5431392A27F0A120003D2A200E54375
:0810D200C313F543054480DB64
:0110DA0022F3
:10100900E4F524C3E5249408748094805028C2A28E
:1010190000D2A200A2A2E433F5257F0A120003D26E
:10102900A200E525C43333335480FFE526C3134FAB
:08103900F526052480CDAF2649
:01104100228C
:1010DB0012112B7FCC1210B07F4E1210B07F7F12EB
:1010EB0010B07FF71210B07F7F1210B012112B7F50
:0910FB00CC1210B07F480210B0C5
:100FB70012112B7FCC1210B07F441210B012112BDC
:100FC7007FCC1210B07FBE1210B01210098F2312FF
:100FD7001009AD07EDFEE523FFC3ED940874809477
:100FE70080400DEFF4FFEEF4FEEF2401FFE43EFE38
:100FF700AD07AC06E4120131E4FBFA7980783D02D3
:021007000026C1
:10114B00D3EF9400EE940040147D767C00ED1D707F
:0D115B00011CED4C70F7EF1F70E61E80E3E5
:011168002264
:07000300AE071FEE70FA22A8
:10002600EC4D6011E8497017ED33EC3304600DE4D4
:10003600FCFFFEFD22E933E8330470F802019F124B
:10004600016A58046009E4CC24815006285009024C
:1000560001A92840030201A6C0E0EB4A7044B9801A
:1000660006D0E0FB020195EF4E701CBD8008EBFF49
:10007600EAFEE9FD80EBE98DF0A4FEE5F002010F52
:10008600E9CDF9EAFEEBFFEF89F0A4FCE5F0CE89B5
:10009600F0A42EFFE435F0CD89F0A42DFEE435F072
:1000A6008067EF4E7005BD80D780C3EF8BF0A4ACA0
:1000B600F0EE8BF0A42CFCE435F0F8EF8AF0A42CDB
:1000C600E5F038FCE433CB8DF0A42CFCE5F03BF8EE
:1000D600EE8AF0A42CFCE5F038F8E433CF89F0A4DE
:1000E6002CFCE5F038CF3400CE89F0A42FFFE5F0E4
:1000F6003EFEE433C98DF0A42EFEE5F039CD8AF03C
:10010600A42FFFE5F03EFEE43DFD33D0E0FB5007B3
:100116000BBB000F0201A9EC2CFCEF33FFEE33FE04
:06012600ED33FD02018132
:10012C0075F020800E75F010800575F0087D007E4E
:10013C00007F003392D530D503120546EC334010C6
:10014C00EF33FFEE33FEED33FDEC33FCD5F0ED2257
:0E015C00E5F0247EA2D513CC92E7CDCEFF2293
:10058A00E55C2448F8E6055C227845301002784894
:10059A00E475F0011205540204EE2009EB7F2ED215
:1005AA00098018EF540F2490D43440D4FF300D0B37
:1005BA00EF24BFB41A0050032461FFE55D60021501
:1005CA005D0560E5607002055F30100D7845E475E1
:1005DA00F001120554EF0205340211047403D2101B
:1005EA008003E4C210F55C8B458A468947E4F55DD1
:1005FA00F55FF560E55D60077F201205C580F5753A
:10060A005EFFC20AC209C20BC20CC20EC20FC211DD
:10061A00120593FF700D3010057F001205D6AF60EA
:10062A00AE5F22B4255FC2D5C20D120593FF24D056
:10063A00B40A00501A75F00A785D30D50508B6FF7D
:10064A000106C6A426F620D5047002D20C80D9244D
:10065A00CFB41A00EF5004C2E5D20D0208C3D20A81
:10066A0080C6D20980C0D20B80BCD2D580BAD20E45
:10067A0080B47F201205C5200B077401B55D0040C8
:10068A00F112058AFF1205C50205FED211D20F80AA
:10069A009512058AFB12058AFA12058AF94A4B70E5
:1006AA000679BA7A097BFF200B2EE55D602A7E0067
:1006BA008E8275830012050760060EEE655E70F085
:1006CA00C2D5EBC0E0EAC0E0E9C0E0EE120923D0EF
:1006DA00E0F9D0E0FAD0E0FB1204EEFF60AAEBC02A
:1006EA00E0EAC0E0E9C0E01205C5D0E02401F9D093
:1006FA00E03400FAD0E0FBE55E0460DCD55ED98028
:10070A0087D20B80A212090660F7E55E7001041217
:10071A0001B4A95E600DE55E600914F55E1209ADCB
:10072A00EF60F3EA30E702F404C3995077EAF4255C
:10073A005E0430E701E404F55E800D12090660C12B
:10074A00EA055E255E1201B4EA785BF630E701E459
:10075A00255E04D55E04200E0114120923E4C0E0CC
:10076A001209AD785BE6601320E70714F61205ADAF
:10077A00802204F6D0E014C0E07F001205ADE55EE9
:10078A0060071205A4155E800B300E031205A4D073
:10079A00E00205FED0E00480C512090660A0E55E0D
:1007AA00041201B4785BEAF6E55E200E02600104E9
:0507BA002404120923D4
:1007BF0074FF04C0E01209AD1205ADE55E200E0214
:1007CF0060031205A4D0E0B55EE87F451205B77847
:1007DF005BE67F2B30E7047F2DF404C0E01205C5E4
:1007EF00D0E075F00A84C0F01205AED0E01205AE6D
:1007FF000205FE791080027908C20FC2118008D25B
:10080F00D5790A8004790AC2D5E55E047002F55ED7
:10081F00E4FAFDFEFF12058AFC7B08200A1312057D
:10082F008AFD7B1030090A12058AFE12058AFF7BAA
:10083F0020EC3382D592D55013C3E43009069FFFC5
:10084F00E49EFEE4200A039DFDE49CFCE4CBF8C289
:10085F000AEC700CCFCECDCCE824F8F870F38017EB
:10086F00C3EF33FFEE33FEED33FDEC33FCEB33FB25
:10087F00994002FB0FD8E9EB300A05F8D0E0C448E5
:10088F00B20AC0E00AEC4D4E4F78207B0070C2EAEE
:10089F00B55E0040BCC0E0120925D0F0D0E0200AC0
:1008AF0004C4C0E0C4B20AC0F01205AED0F0D5F057
:1008BF00EB0205FE120564069B53080258066C4CAA
:1008CF0006684208064F080E44080E490681430881
:1008DF00145507454607A345070F4709DA50067019
:1008EF002D06742E06972B06782306952009C32A0A
:1008FF000630480000068FE55EB4FF03755E0612F2
:10090F00058AFC12058AFD12058AFE12058AFF78F8
:10091F00540201E3790AA2D5200C14300E09B91044
:10092F00020404B9080104A2D5200F0250010420CB
:10093F000B68920BB55D005034C0E07F20300C196E
:10094F007F30A20B720F720E500F12097CC20BC2B6
:10095F000FC20EC2117F30800F300E03E9C0E012BC
:10096F0005C5300E03D0E0F9D0E0B55DCC300E17E1
:10097F007F30B9100C1205C57F58300D077F788076
:10098F0003B908031205C5300B057F2D0205C57F7E
:10099F00202011F87F2B200FF322920B80CF7F00A6
:1009AF00B4070050052454F8E6FF22286E756C6CCE
:1009BF002900D20A12058A300AF8C20A785D30D5AA
:1009CF000108F60206302D5043495812058A2403B8
:1009DF00B405004001E49009D5931205B6743A129C
:0A09EF0005B6D20C755D0402080283
:10016A00E9D2E7C933E833F892D5EDD2E7CD33ECDB
:07017A0033FC5002B2D52254
:10018100EC30E7100FBF000C0EBE00080DBD0004DF
:100191000BEB6014A2D5EB13FCED92E7FD2274FF8B
:1001A100FCFDFEFF22E480F8A2D574FF13FC7D80E4
:0301B100E480EFF8
:1001B400F920E72824F950037907E4F42402FB1812
:1001C400DBFDE624FB5014E9600DE4F618E604F6C2
:0F01D400B40A08E4F6D9F57401F60A22C2D5225E
:1001E300ED33EC3392D5FA602AB4FF33EDC2E77BEB
:1001F300FF60067A027908E4227A02791120D50495
:100203007A02790C224E614E002B494E46002D494D
:100213004E4600E47A08F608DAFC7B00740722E80D
:10022300C0E0ECC0E0EDC0E0EEC0E0EFC0E0EA7596
:10023300F010A4CAABF075F04DA42BFBE435F0FC31
:10024300EA2410FAEB34C5FBEC34D9FCEDC2E7FF2A
:1002530075F056A4F42411C5F0F434C58FF0A42A24
:10026300E5F03BE43CF620E7141204AED0E0FFD007
:10027300E0FED0E0FDD0E0FC1203E18014F40412B0
:1002830004AED0E0FFD0E0FED0E0FDD0E0FC1200F1
:1002930026D0E0F8E6FAEDD2E7CD33EC332482FB47
:1002A300E4C3CF33CFCE33CECD33CD33DBF37B07B4
:1002B30075F00A846004F6081B0AE5F0F6088FF06F
:1002C300740AA4FFACF08EF0740AA42CFEACF050B8
:1002D300010C8DF0740AA42CFDE435F0F608DBDE86
:0302E3007407227B
:1002E60002019FE86480F8E933E83360110460F0A6
:1002F600ED33EC337009E8FCE9FDEAFEEBFF22047E
:1003060060DED3EB9FEA9EE99DE8C2E78CF0C2F778
:1003160095F0400CE8CCF8E9CDF9EACEFAEBCFFB44
:1003260012016A85D0F05804700320D5B3E8047032
:10033600075002B2D50201A992D5EC0460F7E4CCCD
:10034600C0E0C398F8603B94186008400DD0E0FB0D
:10035600020181E4FBFAC9FC8028E830E406E4C91E
:10036600FBE4CAFCE830E305E4C9CACBFCE8540761
:100376006010F8C3E913F9EA13FAEB13FBEC13FC6C
:10038600D8F130F52FC3E49CFCEF9BFFEE9AFEED0F
:1003960099FDD0E0FBEF4E4D4C701222DB030201BB
:1003A600A6EC2CFCEF33FFEE33FEED33FDED30E72C
:1003B600EB020181EF2BFFEE3AFEED39FDD0E0FBBB
:1003C60050130BBB00030201A9ED13FDEE13FEEF64
:0803D60013FFEC13FC0201818E
:1003DE000201A9EC5D046005E85904700302019F57
:1003EE0012016A580460F6EC4860F2EC7004FDFEEF
:1003FE00FF22C860DB2481C85009C39860025006F2
:10040E000201A69850CAF582E9294B4A7005AB82C3
:10041E0002019575F0007C1A7880C3EF9BEE9AED81
:10042E0099400DC3EF9BFFEE9AFEED99FDE842F069
:10043E00DC23ACF0D0E0FFD0E0FED0E0FDAB8220BC
:10044E00E7101BEB60BAEC2CFCEF33FFEE33FEED46
:10045E0033FD020181E803F830E705C0F075F000C6
:10046E00EF2FFFEE33FEED33FD40B830E7C280AA2A
:10047E003F8000004120000042C80000447A000086
:10048E00461C400047C35000497424004B18968008
:10049E004CBEBC205A0E1BCA6753C21C749DC5AEFF
:1004AE00FB60065407601C23231204DCEB543860F7
:1004BE00091204C81204D7120026ECF8EDF9EEFA70
:1004CE00EFCB22EB1204D780F1543803241C900496
:1004DE007EFE93FC0EEE93FD0EEE930ECE93FF2258
:03000000020E4F9E
:0C0E4F00787FE4F6D8FD758160020E96F5
:1004EE00BB010689828A83E0225002E722BBFE020C
:0904FE00E32289828A83E493223F
:10050700BB010CE58229F582E5833AF583E02250A9
:1005170006E92582F8E622BBFE06E92582F8E222F3
:0D052700E58229F582E5833AF583E493220D
:10053400BB010689828A83F0225002F722BBFE01A6
:02054400F322A0
:0E054600C3E49FFFE49EFEE49DFDE49CFC22C6
:10055400FAE6FB0808E6F925F0F618E6CA3AF622A8
:10056400D083D082F8E4937012740193700DA3A326
:1005740093F8740193F5828883E47374029368603A
:06058400EFA3A3A380DF3A
:10110400EFB40A07740D12110F740A309811A899DC
:10111400B8130CC2983098FDA899C298B811F6304B
:0711240099FDC299F5992223
:100E5B00020D7CE493A3F8E493A34003F68001F224
:100E6B0008DFF48029E493A3F85407240CC8C33398
:100E7B00C4540F4420C8834004F456800146F6DF67
:100E8B00E4800B010204081020408090118EE47E58
:100E9B00019360BCA3FF543F30E509541FFEE4935C
:100EAB00A360010ECF54C025E060A840B8E493A323
:100EBB00FAE493A3F8E493A3C8C582C8CAC583CA4E
:100ECB00F0A3C8C582C8CAC583CADFE9DEE780BE06
:011198000056
:00000001FF
