:1000260041540D0A0041542B5253540D0A004154B9
:100036002B43574D4F44453D330D0A0041542B4346
:10004600574A41503D2264696E676C65725F7769F5
:100056006669222C2264696E676C657235343332A8
:1000660031220D0A0041542B43494653520D0A00D2
:1000760041542B4349504D4F44453D310D0A0041F3
:10008600542B4349504D55583D300D0A0041542BD1
:1000960043495053544152543D22544350222C223A
:1000A6003139322E3136382E362E3130222C383038
:1000B60038300D0A0071696E67736F6E670D0A003E
:03001C00010C00D4
:10022D00758920758BFD758DFDD28ED29CC29FD2A6
:06023D009ED2AFD2AC22FC
:1002550012022D120152AF0C12026512024380F6F2
:040209007FD07E071D
:10020D00E4FDFCC3ED9FEC9E5015E4FBFA0BBB0027
:0F021D00010AEB647B4A70F50DBD00010C80E413
:01022C0022AF
:080265008F993099FDC2992226
:1001B6008B088A09890AAB08AA09A90A12000360F2
:1001C6001A050AE50A7002050914F9120003FF125E
:0C01D60002657F057E0012020D80DB2216
:100152007BFF7A0079261201B61202097BFF7A0030
:10016200792B1201B61202097BFF7A00793412014F
:10017200B61202097BFF7A0079421201B612020915
:100182007BFF7A00796B1201B61202097BFF7A00BB
:1001920079761201B61202097BFF7A007985120183
:1001A200B61202097BFF7A0079931201B67FD07EE4
:0401B2000702020D31
:030023000201E2F5
:1001E200C0E0C0D0C29885990BE50BB43105C2902E
:1001F200750C01E50BB43007D290750C01800375C4
:070202000C00D0D0D0E03267
:100243007BFF7A0079BB1201B67B007A00790C023E
:0202530001B6F2
:030000000200C635
:0C00C600787FE4F6D8FD75810C02010D76
:10000300BB010689828A83E0225002E722BBFE02FB
:09001300E32289828A83E493222E
:1000D200020255E493A3F8E493A34003F68001F2ED
:1000E20008DFF48029E493A3F85407240CC8C3332F
:1000F200C4540F4420C8834004F456800146F6DFFE
:10010200E4800B010204081020408090001CE47E71
:10011200019360BCA3FF543F30E509541FFEE493F2
:10012200A360010ECF54C025E060A840B8E493A3B9
:10013200FAE493A3F8E493A3C8C582C8CAC583CAE4
:10014200F0A3C8C582C8CAC583CADFE9DEE780BE9C
:01001F0000E0
:00000001FF
