:1000260041542B5253540D0A0041542B43574D4F04
:1000360044453D310D0A0041542B43494653520D68
:100046000A0041542B43574A41503D2271696E675D
:10005600736F6E67222C22313131313131313122C9
:100066000D0A0041542B4349504D55583D300D0A59
:100076000041542B4349504D4F44453D310D0A0034
:1000860041542B43495053544152543D22544350FA
:10009600222C223139322E3136382E34332E31305D
:1000A600222C383038300D0A0041542B4349505326
:1000B600454E440D0A004F4B0071696E67736F6EB3
:0400C600670D0A00B8
:10014100758920758BFD758DFDD28ED29CC29FD293
:060151009ED2AFD2AC22E9
:09016D007BFF1201577FE87E03BD
:0B017600EF1FAC0670011E4C70F6225B
:0B018D001201411200FB1200CA80FBAF
:080198008F993099FDC29922F4
:10015700120128FF600F120198740129F9E43AFA95
:0601670012017280EB2280
:1000FB001201727A00792612016D7A00792F1201A2
:10010B006F7A00793D12016F7A00794812016F7A8C
:0D011B000079691201577FE87E030201762A
:1000CA007A00797712016D7A0079861201577FA03A
:1000DA007E861201767A0079AF12016F7A0079BCB6
:1000EA0012016F7A0079BF1201577FE87E0302017D
:0100FA00768F
:03002300020003D5
:10000300C0E0C0D0C298859908E508B43102C29314
:0C001300E508B43002D293D0D0D0E03227
:0300000002018179
:0C018100787FE4F6D8FD75810802018D3E
:10012800BB010689828A83E0225002E722BBFE02D5
:09013800E32289828A83E4932208
:00000001FF
