:1000260041542B5253540D0A0041542B43574D4F04
:1000360044453D310D0A0041542B43494653520D68
:100046000A0041542B43574A41503D2264696E676A
:100056006C65725F77696669222C2264696E676CCB
:1000660065723534333231220D0A0041542B43492F
:10007600504D55583D300D0A0041542B43495053BD
:10008600544152543D22544350222C223139322EAF
:100096003136382E362E3130222C383038300D0A93
:1000A6000041542B4349504D4F44453D310D0A0004
:1000B60041542B43495053454E440D0A004F4B00C3
:0B00C60071696E67736F6E670D0A00B2
:10014100758920758BFD758DFDD28ED29CC29FD293
:060151009ED2AFD2AC22E9
:09016D007BFF1201577FE87E03BD
:0B017600EF1FAC0670011E4C70F6225B
:0B019B001201411200D11200FE80FB97
:0E018100C2ACC2998F993099FDC299D2AC22BE
:10015700120128FF600F120181740129F9E43AFAAC
:0601670012017280EB2280
:1000D1001201727A00792612016D7A00792F1201CC
:1000E1006F7A00793D12016F7A00794812016F7AB7
:0D00F1000079711201577FE87E030201764D
:1000FE007A00797F12016D7A0079A712016F7A006A
:10010E0079B612016F7A0079C312016F7A0079C63F
:0A011E001201577FE87E030201760C
:03002300020003D5
:10000300C0E0C0D0C298859908E508B46F02C293D6
:0C001300E508B46602D293D0D0D0E032F1
:0300000002018F6B
:0C018F00787FE4F6D8FD75810802019B22
:10012800BB010689828A83E0225002E722BBFE02D5
:09013800E32289828A83E4932208
:00000001FF
